{
  "_format": "hh-sol-artifact-1",
  "contractName": "Domains",
  "sourceName": "contracts/Domains.sol",
  "abi": [
    {
      "inputs": [],
      "stateMutability": "nonpayable",
      "type": "constructor"
    },
    {
      "inputs": [
        {
          "internalType": "string",
          "name": "",
          "type": "string"
        }
      ],
      "name": "domains",
      "outputs": [
        {
          "internalType": "address",
          "name": "",
          "type": "address"
        }
      ],
      "stateMutability": "view",
      "type": "function"
    },
    {
      "inputs": [
        {
          "internalType": "string",
          "name": "name",
          "type": "string"
        }
      ],
      "name": "getAddress",
      "outputs": [
        {
          "internalType": "address",
          "name": "",
          "type": "address"
        }
      ],
      "stateMutability": "view",
      "type": "function"
    },
    {
      "inputs": [
        {
          "internalType": "string",
          "name": "name",
          "type": "string"
        }
      ],
      "name": "register",
      "outputs": [],
      "stateMutability": "nonpayable",
      "type": "function"
    }
  ],
  "bytecode": "0x608060405234801561001057600080fd5b5061003c60405180606001604052806021815260200161092d6021913961004160201b6101f71760201c565b6101c4565b6100dd8160405160240161005591906101a2565b6040516020818303038152906040527f41304fac000000000000000000000000000000000000000000000000000000007bffffffffffffffffffffffffffffffffffffffffffffffffffffffff19166020820180517bffffffffffffffffffffffffffffffffffffffffffffffffffffffff83818316178352505050506100e060201b60201c565b50565b60008151905060006a636f6e736f6c652e6c6f679050602083016000808483855afa5050505050565b600081519050919050565b600082825260208201905092915050565b60005b83811015610143578082015181840152602081019050610128565b83811115610152576000848401525b50505050565b6000601f19601f8301169050919050565b600061017482610109565b61017e8185610114565b935061018e818560208601610125565b61019781610158565b840191505092915050565b600060208201905081810360008301526101bc8184610169565b905092915050565b61075a806101d36000396000f3fe608060405234801561001057600080fd5b50600436106100415760003560e01c80632644923514610046578063bf40fac114610076578063f2c298be146100a6575b600080fd5b610060600480360381019061005b91906104af565b6100c2565b60405161006d9190610539565b60405180910390f35b610090600480360381019061008b91906105b4565b61010b565b60405161009d9190610539565b60405180910390f35b6100c060048036038101906100bb91906105b4565b610155565b005b6000818051602081018201805184825260208301602085012081835280955050505050506000915054906101000a900473ffffffffffffffffffffffffffffffffffffffff1681565b600080838360405161011e929190610631565b908152602001604051809103902060009054906101000a900473ffffffffffffffffffffffffffffffffffffffff16905092915050565b3360008383604051610168929190610631565b908152602001604051809103902060006101000a81548173ffffffffffffffffffffffffffffffffffffffff021916908373ffffffffffffffffffffffffffffffffffffffff1602179055506101f36040518060400160405280601b81526020017f2573206861732072656769737465726564206120646f6d61696e21000000000081525033610290565b5050565b61028d8160405160240161020b91906106d2565b6040516020818303038152906040527f41304fac000000000000000000000000000000000000000000000000000000007bffffffffffffffffffffffffffffffffffffffffffffffffffffffff19166020820180517bffffffffffffffffffffffffffffffffffffffffffffffffffffffff838183161783525050505061032c565b50565b61032882826040516024016102a69291906106f4565b6040516020818303038152906040527f319af333000000000000000000000000000000000000000000000000000000007bffffffffffffffffffffffffffffffffffffffffffffffffffffffff19166020820180517bffffffffffffffffffffffffffffffffffffffffffffffffffffffff838183161783525050505061032c565b5050565b60008151905060006a636f6e736f6c652e6c6f679050602083016000808483855afa5050505050565b6000604051905090565b600080fd5b600080fd5b600080fd5b600080fd5b6000601f19601f8301169050919050565b7f4e487b7100000000000000000000000000000000000000000000000000000000600052604160045260246000fd5b6103bc82610373565b810181811067ffffffffffffffff821117156103db576103da610384565b5b80604052505050565b60006103ee610355565b90506103fa82826103b3565b919050565b600067ffffffffffffffff82111561041a57610419610384565b5b61042382610373565b9050602081019050919050565b82818337600083830152505050565b600061045261044d846103ff565b6103e4565b90508281526020810184848401111561046e5761046d61036e565b5b610479848285610430565b509392505050565b600082601f83011261049657610495610369565b5b81356104a684826020860161043f565b91505092915050565b6000602082840312156104c5576104c461035f565b5b600082013567ffffffffffffffff8111156104e3576104e2610364565b5b6104ef84828501610481565b91505092915050565b600073ffffffffffffffffffffffffffffffffffffffff82169050919050565b6000610523826104f8565b9050919050565b61053381610518565b82525050565b600060208201905061054e600083018461052a565b92915050565b600080fd5b600080fd5b60008083601f84011261057457610573610369565b5b8235905067ffffffffffffffff81111561059157610590610554565b5b6020830191508360018202830111156105ad576105ac610559565b5b9250929050565b600080602083850312156105cb576105ca61035f565b5b600083013567ffffffffffffffff8111156105e9576105e8610364565b5b6105f58582860161055e565b92509250509250929050565b600081905092915050565b60006106188385610601565b9350610625838584610430565b82840190509392505050565b600061063e82848661060c565b91508190509392505050565b600081519050919050565b600082825260208201905092915050565b60005b83811015610684578082015181840152602081019050610669565b83811115610693576000848401525b50505050565b60006106a48261064a565b6106ae8185610655565b93506106be818560208601610666565b6106c781610373565b840191505092915050565b600060208201905081810360008301526106ec8184610699565b905092915050565b6000604082019050818103600083015261070e8185610699565b905061071d602083018461052a565b939250505056fea2646970667358221220749805d0d5a138670506e5c24492de98928a257d90baa35c8525e0a3ff825cf364736f6c634300080a003354484953204953204d5920444f4d41494e20434f4e54524143542e204e4943452e",
  "linkReferences": {},
  "deployedLinkReferences": {}
}